:020000040800F2
:100000008006002089010008910100089301000882
:100010009501000897010008990100080000000000
:100020000000000000000000000000009B0100082C
:100030009D010008000000009F010008A1010008C8
:10004000A3010008A3010008A3010008A301000800
:10005000A3010008A301000845020008A30100084D
:10006000A3010008A3010008A3010008A3010008E0
:10007000A3010008A3010008A3010008A3010008D0
:10008000A3010008A3010008A3010008A3010008C0
:10009000A3010008A3010008A3010008A3010008B0
:1000A000A3010008A3010008A3010008A3010008A0
:1000B000A3010008A301000800000000A30100083C
:1000C000A30100080000000000000000A3010008D8
:1000D00000000000A3010008A301000800000000C8
:1000E000A3010008A3010008A301000800F002F822
:1000F00000F03AF80AA090E8000C82448344AAF188
:100100000107DA4501D100F02FF8AFF2090EBAE885
:100110000F0013F0010F18BFFB1A43F0010318473B
:10012000FC0500001C060000103A24BF78C878C106
:10013000FAD8520724BF30C830C144BF04680C60ED
:10014000704700000023002400250026103A28BF35
:1001500078C1FBD8520728BF30C148BF0B60704739
:100160001FB51FBD10B510BD00F031F81146FFF7E7
:10017000F7FF00F0A1FA00F04FF803B4FFF7F2FF29
:1001800003BC00F057F800000948804709480047C1
:10019000FEE7FEE7FEE7FEE7FEE7FEE7FEE7FEE737
:1001A000FEE7FEE704480549054A064B7047000094
:1001B00061060008ED000008800000208006002095
:1001C000800200208002002070477047704775460B
:1001D00000F02CF8AE4605006946534620F00700B3
:1001E000854618B020B5FFF7DDFFBDE820404FF091
:1001F00000064FF000074FF000084FF0000BAC4630
:10020000ACE8C009ACE8C009ACE8C009ACE8C0097A
:1002100021F007018D46704710B50446AFF300800A
:100220002046BDE81040FFF7A8BF00000048704717
:100230002000002001491820ABBEFEE72600020086
:100240007047000040F20400C2F2000000684169FB
:10025000C90708BF704741694FF6FF7241F00101BD
:10026000416140F21000C2F200000068C1685140D4
:10027000C160704701290DD11F2819D840F214011F
:10028000C2F20001096801220B6802FA00F018436B
:10029000086070471F281BD840F21401C2F2000109
:1002A00009680122CB6F02FA00F01843C867704753
:1002B0003F281FD840F21401C2F20001096800F083
:1002C0001F0001224B6802FA00F018434860704793
:1002D0003F281FD840F21401C2F20001096800F063
:1002E0001F000122D1F8803002FA00F01843C1F853
:1002F000800070475F281FD840F21401C2F200014D
:10030000096800F03F0001228B6802FA00F01843F0
:10031000886070475F2888BF704740F21401C2F2BE
:100320000001096800F03F000122D1F8843002FA90
:1003300000F01843C1F884007047000010B501793F
:1003400090F805C007294FEA81020FD801680B68B1
:1003500000230B60D1F800E00CFA02F343EA0E032D
:100360000B60807942F0020290400EE00168A2F139
:10037000200E51F8043F00230B600C680CFA0EF3BA
:1003800023430B6080791E3A90400A68104308604E
:1003900010BD000010B540F21801C2F2000109685A
:1003A0008A6942F001028A610479032C1ED840F266
:1003B0000803C2F2000302681B689A4256D040F25A
:1003C0000C03C2F200031B689A4240F0858040F2A1
:1003D0000002C2F2000212684FF0010CD2F808E0ED
:1003E0000CFA04F343EA0E03936075E0072C1DD862
:1003F00040F20803C2F2000302681B689A4254D01C
:1004000040F20C03C2F200031B689A4264D140F22E
:100410000002C2F2000212684FF0010CD2F80CE0A8
:100420000CFA04F343EA0E03D36055E040F20803EC
:10043000C2F2000302681B680B2C1FD89A423CD002
:1004400040F20C03C2F200031B689A4244D140F20E
:100450000002C2F2000212684FF0010CD2F810E064
:100460000CFA04F343EA0E03136135E040F2000294
:10047000C2F200021268936893602DE09A4224D081
:1004800040F20C03C2F200031B689A4224D140F2EE
:100490000002C2F2000212684FF0010CD2F814E020
:1004A0000CFA04F343EA0E0315E040F20002C2F234
:1004B00000021268D368D3600EE040F20002C2F27C
:1004C000000212681369136106E040F20002C2F2F2
:1004D000000212685369536140F20402C2F2000242
:1004E000126801211368A1400B431360C0790128F1
:1004F00009D0002818BF10BDD0680843D0609068AC
:100500008843906010BDD0688843D06090680843ED
:10051000906010BD01291ED140F20801C2F2000115
:100520000968814218D040F20C01C2F2000109684A
:1005300081421BD040F21001C2F2000109688142E1
:1005400018BF704740F21800C2F2000000688169CD
:1005500041F010018161704740F21800C2F20000C2
:100560000068816941F004018161704740F2180020
:10057000C2F200000068816941F0080181617047A2
:10058000012303FA01F1002AC26814BF114322EAD1
:100590000101C1607047000080B500F001F880BD26
:1005A00082B041F204000021C4F2020001910091E6
:1005B00050F8041C41F4803140F8041C50F8041C2D
:1005C00001F400310091019901310191009919B9AB
:1005D0000199B1F5A06FF1D150F8041C890354BF03
:1005E0000021012100910099012936D142F2000138
:1005F000C4F202010A6842F010020A600A6822F09E
:1006000003020A600A6842F002020A60016801609F
:1006100001680160016841F480610160016821F4B2
:100620007C110160016841F4E811016050F8041C7C
:1006300041F0807140F8041C50F8041C8901FBD57E
:10064000016821F003010160016841F002010160CD
:10065000016801F00C010829FAD102B070470000CE
:1006600080B541F20000C4F202000168002241F0AE
:10067000010101604168CFF6FF021140416001684D
:100680004FF6FF72CFF6F66211400160016821F467
:1006900080210160416821F4FE0141604FF41F0197
:1006A0008160FFF779FF4EF60850CEF200004FF060
:1006B0000061016080BD000084B040F20800C2F219
:1006C000000000684FF40031CDE900010121FFF77F
:1006D00021FF6C462046FFF731FE2046FFF75AFE09
:1006E00006200121FFF7C6FD40F2100440F20D3054
:1006F000C2F20004ADF80C00002120688DF80E1045
:1007000001210290FFF706FF02A8FFF717FE2068FD
:100710000D210022FFF734FFFEE70000400700082C
:1007200000000020200000002801000860070008E9
:1007300020000020600600004401000800000000C6
:10074000000001400004014000080140000C01408D
:100750000010014000E100E0001002400000000035
:04000005080000ED02
:00000001FF
